{
  "_format": "hh-sol-artifact-1",
  "contractName": "MockERC7984",
  "sourceName": "contracts/MockERC7984.sol",
  "abi": [
    {
      "inputs": [
        {
          "internalType": "bytes32",
          "name": "handle",
          "type": "bytes32"
        },
        {
          "internalType": "address",
          "name": "sender",
          "type": "address"
        }
      ],
      "name": "SenderNotAllowedToUseHandle",
      "type": "error"
    },
    {
      "inputs": [],
      "name": "ZamaProtocolUnsupported",
      "type": "error"
    },
    {
      "inputs": [
        {
          "internalType": "address",
          "name": "account",
          "type": "address"
        }
      ],
      "name": "balanceOf",
      "outputs": [
        {
          "internalType": "euint64",
          "name": "",
          "type": "bytes32"
        }
      ],
      "stateMutability": "view",
      "type": "function"
    },
    {
      "inputs": [],
      "name": "confidentialProtocolId",
      "outputs": [
        {
          "internalType": "uint256",
          "name": "",
          "type": "uint256"
        }
      ],
      "stateMutability": "view",
      "type": "function"
    },
    {
      "inputs": [
        {
          "internalType": "address",
          "name": "to",
          "type": "address"
        },
        {
          "internalType": "euint64",
          "name": "amount",
          "type": "bytes32"
        }
      ],
      "name": "confidentialTransfer",
      "outputs": [],
      "stateMutability": "nonpayable",
      "type": "function"
    },
    {
      "inputs": [
        {
          "internalType": "address",
          "name": "from",
          "type": "address"
        },
        {
          "internalType": "address",
          "name": "to",
          "type": "address"
        },
        {
          "internalType": "euint64",
          "name": "amount",
          "type": "bytes32"
        }
      ],
      "name": "confidentialTransferFrom",
      "outputs": [],
      "stateMutability": "nonpayable",
      "type": "function"
    },
    {
      "inputs": [
        {
          "internalType": "address",
          "name": "holder",
          "type": "address"
        },
        {
          "internalType": "address",
          "name": "spender",
          "type": "address"
        }
      ],
      "name": "isOperator",
      "outputs": [
        {
          "internalType": "bool",
          "name": "",
          "type": "bool"
        }
      ],
      "stateMutability": "view",
      "type": "function"
    },
    {
      "inputs": [
        {
          "internalType": "address",
          "name": "to",
          "type": "address"
        },
        {
          "internalType": "externalEuint64",
          "name": "encAmount",
          "type": "bytes32"
        },
        {
          "internalType": "bytes",
          "name": "inputProof",
          "type": "bytes"
        }
      ],
      "name": "mintEncrypted",
      "outputs": [],
      "stateMutability": "nonpayable",
      "type": "function"
    },
    {
      "inputs": [
        {
          "internalType": "address",
          "name": "operator",
          "type": "address"
        },
        {
          "internalType": "uint48",
          "name": "until",
          "type": "uint48"
        }
      ],
      "name": "setOperator",
      "outputs": [],
      "stateMutability": "nonpayable",
      "type": "function"
    }
  ],
  "bytecode": "0x608060405234801561000f575f5ffd5b506100c461001b6100c9565b80517f9e7b61f58c47dc699ac88507c4f5bb9f121c03808c5676a8078fe583e464970080546001600160a01b03199081166001600160a01b039384161790915560208301517f9e7b61f58c47dc699ac88507c4f5bb9f121c03808c5676a8078fe583e46497018054831691841691909117905560408301517f9e7b61f58c47dc699ac88507c4f5bb9f121c03808c5676a8078fe583e46497028054909216921691909117905550565b610278565b604080516060810182525f808252602082018190529181019190915246600103610162575060408051606080820183525f8083526020808401829052928401528251908101835273ca2e8f1f656cd25c01f05d0b243ab1ecd4a8ffb6815273d82385dada1ae3e969447f20a3164f6213100e75918101919091527377627828a55156b04ac0dc0eb30467f1a552bb039181019190915290565b4662aa36a7036101e1575060408051606080820183525f8083526020808401829052928401528251908101835273f0ffdc93b7e186bc2f8cb3daa75d86d1930a433d81527392c920834ec8941d2c77d188936e1f7a6f49c1279181019190915273be0e383937d564d7ff0bc3b46c51f0bf8d5c311a9181019190915290565b46617a690361025f575060408051606080820183525f808352602080840182905292840152825190810183527350157cffd6bbfa2dece204a89ec419c23ef5755d815273e3a9105a3a932253a70f126eb1e3b589c643dd249181019190915273be0e383937d564d7ff0bc3b46c51f0bf8d5c311a9181019190915290565b6040516373cac13b60e01b815260040160405180910390fd5b610c9e806102855f395ff3fe608060405234801561000f575f5ffd5b506004361061007a575f3560e01c8063971c457911610058578063971c4579146100d6578063b6363cf2146100e9578063d4febb961461010c578063eb3155b51461015d575f5ffd5b80635bebed7e1461007e57806370a08231146100935780638927b030146100ce575b5f5ffd5b61009161008c3660046109f7565b610170565b005b6100bb6100a1366004610a1f565b6001600160a01b03165f9081526020819052604090205490565b6040519081526020015b60405180910390f35b6100bb61025d565b6100916100e4366004610a38565b61026b565b6100fc6100f7366004610abb565b61030a565b60405190151581526020016100c5565b61009161011a366004610aec565b335f9081526001602090815260408083206001600160a01b0395909516835293905291909120805465ffffffffffff191665ffffffffffff909216919091179055565b61009161016b366004610b2b565b610344565b6001600160a01b0382166101cb5760405162461bcd60e51b815260206004820152601b60248201527f4d6f636b455243373938343a207a65726f20726563697069656e74000000000060448201526064015b60405180910390fd5b335f908152602081905260408120546101e490836104c7565b90506101ef816104fc565b506101fa813361051c565b50335f908152602081905260408082208390556001600160a01b0385168252812054610226908461053f565b9050610231816104fc565b5061023c818561051c565b506001600160a01b039093165f908152602081905260409020929092555050565b5f61026661056d565b905090565b5f6102ab8484848080601f0160208091040260200160405190810160405280939291908181526020018383808284375f920191909152506105a192505050565b6001600160a01b0386165f90815260208190526040812054919250906102d1908361053f565b90506102dc816104fc565b506102e7818761051c565b506001600160a01b039095165f9081526020819052604090209490945550505050565b6001600160a01b038083165f9081526001602090815260408083209385168352929052205465ffffffffffff428116911610155b92915050565b6001600160a01b03821661039a5760405162461bcd60e51b815260206004820152601b60248201527f4d6f636b455243373938343a207a65726f20726563697069656e74000000000060448201526064016101c2565b6001600160a01b0383165f90815260016020908152604080832033845290915290205465ffffffffffff428116911610156104275760405162461bcd60e51b815260206004820152602760248201527f4d6f636b455243373938343a206e6f7420616e206f70657261746f72206f7220604482015266195e1c1a5c995960ca1b60648201526084016101c2565b6001600160a01b0383165f9081526020819052604081205461044990836104c7565b9050610454816104fc565b5061045f818561051c565b506001600160a01b038085165f9081526020819052604080822084905591851681529081205461048f908461053f565b905061049a816104fc565b506104a5818561051c565b506001600160a01b039093165f90815260208190526040902092909255505050565b5f826104d9576104d65f610607565b92505b816104ea576104e75f610607565b91505b6104f583835f61061d565b9392505050565b5f8161050e5761050b5f610607565b91505b61051882306106da565b5090565b5f8261052e5761052b5f610607565b92505b61053883836106da565b5090919050565b5f826105515761054e5f610607565b92505b816105625761055f5f610607565b91505b6104f583835f610750565b5f4660010361057c5750600190565b4662aa36a70361058d575061271190565b46617a690361059c57505f1990565b505f90565b5f81515f146105bd576105b6838360056107c7565b905061033e565b825f8190036105d7576105cf5f610607565b91505061033e565b6105e181336108c1565b6105b657604051630276b5d960e01b8152600481018290523360248201526044016101c2565b5f61033e8267ffffffffffffffff16600561094d565b5f5f82156106305750600160f81b610633565b505f5b5f516020610c295f395f51905f52546040516303056db360e31b815260048101879052602481018690526001600160f81b0319831660448201525f516020610c495f395f51905f52916001600160a01b03169063182b6d98906064015b6020604051808303815f875af11580156106ac573d5f5f3e3d5ffd5b505050506040513d601f19601f820116820180604052508101906106d09190610b65565b9695505050505050565b5f5f516020610c495f395f51905f528054604051635ca4b5b160e11b8152600481018690526001600160a01b03858116602483015292935091169063b9496b62906044015f604051808303815f87803b158015610735575f5ffd5b505af1158015610747573d5f5f3e3d5ffd5b50505050505050565b5f5f82156107635750600160f81b610766565b505f5b5f516020610c295f395f51905f525460405163022f65e760e31b815260048101879052602481018690526001600160f81b0319831660448201525f516020610c495f395f51905f52916001600160a01b03169063117b2f3890606401610690565b5f516020610c295f395f51905f525460405163045fc19560e11b81525f915f516020610c495f395f51905f52916001600160a01b03909116906308bf832a9061081a908890339089908990600401610b9c565b6020604051808303815f875af1158015610836573d5f5f3e3d5ffd5b505050506040513d601f19601f8201168201806040525081019061085a9190610b65565b8154604051630f8e573b60e21b8152600481018390523360248201529193506001600160a01b031690633e395cec906044015f604051808303815f87803b1580156108a3575f5ffd5b505af11580156108b5573d5f5f3e3d5ffd5b50505050509392505050565b5f805f516020610c495f395f51905f5280546040516382027b6d60e01b8152600481018790526001600160a01b0386811660248301529293509116906382027b6d90604401602060405180830381865afa158015610921573d5f5f3e3d5ffd5b505050506040513d601f19601f820116820180604052508101906109459190610bf5565b949350505050565b5f516020610c295f395f51905f5254604051639cd07acb60e01b81525f915f516020610c495f395f51905f52916001600160a01b0390911690639cd07acb9061099c9087908790600401610c14565b6020604051808303815f875af11580156109b8573d5f5f3e3d5ffd5b505050506040513d601f19601f820116820180604052508101906109459190610b65565b80356001600160a01b03811681146109f2575f5ffd5b919050565b5f5f60408385031215610a08575f5ffd5b610a11836109dc565b946020939093013593505050565b5f60208284031215610a2f575f5ffd5b6104f5826109dc565b5f5f5f5f60608587031215610a4b575f5ffd5b610a54856109dc565b935060208501359250604085013567ffffffffffffffff811115610a76575f5ffd5b8501601f81018713610a86575f5ffd5b803567ffffffffffffffff811115610a9c575f5ffd5b876020828401011115610aad575f5ffd5b949793965060200194505050565b5f5f60408385031215610acc575f5ffd5b610ad5836109dc565b9150610ae3602084016109dc565b90509250929050565b5f5f60408385031215610afd575f5ffd5b610b06836109dc565b9150602083013565ffffffffffff81168114610b20575f5ffd5b809150509250929050565b5f5f5f60608486031215610b3d575f5ffd5b610b46846109dc565b9250610b54602085016109dc565b929592945050506040919091013590565b5f60208284031215610b75575f5ffd5b5051919050565b60548110610b9857634e487b7160e01b5f52602160045260245ffd5b9052565b84815260018060a01b0384166020820152608060408201525f8351806080840152806020860160a085015e5f60a0828501015260a0601f19601f830116840101915050610bec6060830184610b7c565b95945050505050565b5f60208284031215610c05575f5ffd5b815180151581146104f5575f5ffd5b828152604081016104f56020830184610b7c56fe9e7b61f58c47dc699ac88507c4f5bb9f121c03808c5676a8078fe583e46497019e7b61f58c47dc699ac88507c4f5bb9f121c03808c5676a8078fe583e4649700a2646970667358221220ee473494edd71217e69ce2fcc43e4e135de14234633483e5c2dc070925aba85864736f6c634300081c0033",
  "linkReferences": {},
  "deployedLinkReferences": {}
}