{
  "_format": "hh-sol-artifact-1",
  "contractName": "ConfidentialPaymentGate",
  "sourceName": "contracts/ConfidentialPaymentGate.sol",
  "abi": [
    {
      "inputs": [
        {
          "internalType": "address",
          "name": "_cUSDT",
          "type": "address"
        },
        {
          "internalType": "address",
          "name": "_flowRegistry",
          "type": "address"
        }
      ],
      "stateMutability": "nonpayable",
      "type": "constructor"
    },
    {
      "inputs": [
        {
          "internalType": "bytes32",
          "name": "handle",
          "type": "bytes32"
        },
        {
          "internalType": "address",
          "name": "sender",
          "type": "address"
        }
      ],
      "name": "SenderNotAllowedToUseHandle",
      "type": "error"
    },
    {
      "inputs": [],
      "name": "ZamaProtocolUnsupported",
      "type": "error"
    },
    {
      "anonymous": false,
      "inputs": [
        {
          "indexed": true,
          "internalType": "address",
          "name": "oldAdmin",
          "type": "address"
        },
        {
          "indexed": true,
          "internalType": "address",
          "name": "newAdmin",
          "type": "address"
        }
      ],
      "name": "AdminTransferred",
      "type": "event"
    },
    {
      "anonymous": false,
      "inputs": [
        {
          "indexed": true,
          "internalType": "address",
          "name": "user",
          "type": "address"
        },
        {
          "indexed": false,
          "internalType": "uint256",
          "name": "timestamp",
          "type": "uint256"
        }
      ],
      "name": "Deposited",
      "type": "event"
    },
    {
      "anonymous": false,
      "inputs": [
        {
          "indexed": true,
          "internalType": "address",
          "name": "from",
          "type": "address"
        },
        {
          "indexed": true,
          "internalType": "address",
          "name": "to",
          "type": "address"
        },
        {
          "indexed": false,
          "internalType": "uint8",
          "name": "mode",
          "type": "uint8"
        },
        {
          "indexed": false,
          "internalType": "uint256",
          "name": "timestamp",
          "type": "uint256"
        }
      ],
      "name": "PaymentRouted",
      "type": "event"
    },
    {
      "anonymous": false,
      "inputs": [
        {
          "indexed": true,
          "internalType": "address",
          "name": "protocol",
          "type": "address"
        },
        {
          "indexed": false,
          "internalType": "string",
          "name": "name",
          "type": "string"
        }
      ],
      "name": "ProtocolRegistered",
      "type": "event"
    },
    {
      "anonymous": false,
      "inputs": [
        {
          "indexed": true,
          "internalType": "address",
          "name": "protocol",
          "type": "address"
        }
      ],
      "name": "ProtocolRevoked",
      "type": "event"
    },
    {
      "anonymous": false,
      "inputs": [
        {
          "indexed": true,
          "internalType": "address",
          "name": "user",
          "type": "address"
        },
        {
          "indexed": false,
          "internalType": "bool",
          "name": "status",
          "type": "bool"
        }
      ],
      "name": "SanctionUpdated",
      "type": "event"
    },
    {
      "inputs": [],
      "name": "DEFAULT_CLIFF_OFFSET",
      "outputs": [
        {
          "internalType": "uint256",
          "name": "",
          "type": "uint256"
        }
      ],
      "stateMutability": "view",
      "type": "function"
    },
    {
      "inputs": [],
      "name": "DEFAULT_VEST_DURATION",
      "outputs": [
        {
          "internalType": "uint256",
          "name": "",
          "type": "uint256"
        }
      ],
      "stateMutability": "view",
      "type": "function"
    },
    {
      "inputs": [],
      "name": "MODE_LIQUID",
      "outputs": [
        {
          "internalType": "uint8",
          "name": "",
          "type": "uint8"
        }
      ],
      "stateMutability": "view",
      "type": "function"
    },
    {
      "inputs": [],
      "name": "MODE_VESTING",
      "outputs": [
        {
          "internalType": "uint8",
          "name": "",
          "type": "uint8"
        }
      ],
      "stateMutability": "view",
      "type": "function"
    },
    {
      "inputs": [],
      "name": "MODE_YIELD",
      "outputs": [
        {
          "internalType": "uint8",
          "name": "",
          "type": "uint8"
        }
      ],
      "stateMutability": "view",
      "type": "function"
    },
    {
      "inputs": [],
      "name": "admin",
      "outputs": [
        {
          "internalType": "address",
          "name": "",
          "type": "address"
        }
      ],
      "stateMutability": "view",
      "type": "function"
    },
    {
      "inputs": [
        {
          "internalType": "address",
          "name": "",
          "type": "address"
        }
      ],
      "name": "authorizedProtocols",
      "outputs": [
        {
          "internalType": "bool",
          "name": "",
          "type": "bool"
        }
      ],
      "stateMutability": "view",
      "type": "function"
    },
    {
      "inputs": [],
      "name": "cUSDT",
      "outputs": [
        {
          "internalType": "address",
          "name": "",
          "type": "address"
        }
      ],
      "stateMutability": "view",
      "type": "function"
    },
    {
      "inputs": [],
      "name": "confidentialProtocolId",
      "outputs": [
        {
          "internalType": "uint256",
          "name": "",
          "type": "uint256"
        }
      ],
      "stateMutability": "view",
      "type": "function"
    },
    {
      "inputs": [
        {
          "internalType": "externalEuint64",
          "name": "encryptedAmount",
          "type": "bytes32"
        },
        {
          "internalType": "bytes",
          "name": "inputProof",
          "type": "bytes"
        }
      ],
      "name": "deposit",
      "outputs": [],
      "stateMutability": "nonpayable",
      "type": "function"
    },
    {
      "inputs": [],
      "name": "flowRegistry",
      "outputs": [
        {
          "internalType": "contract FlowRegistry",
          "name": "",
          "type": "address"
        }
      ],
      "stateMutability": "view",
      "type": "function"
    },
    {
      "inputs": [
        {
          "internalType": "address",
          "name": "user",
          "type": "address"
        }
      ],
      "name": "getBalance",
      "outputs": [
        {
          "internalType": "euint64",
          "name": "",
          "type": "bytes32"
        }
      ],
      "stateMutability": "view",
      "type": "function"
    },
    {
      "inputs": [],
      "name": "getRegisteredProtocols",
      "outputs": [
        {
          "internalType": "address[]",
          "name": "protocols",
          "type": "address[]"
        },
        {
          "internalType": "string[]",
          "name": "names",
          "type": "string[]"
        }
      ],
      "stateMutability": "view",
      "type": "function"
    },
    {
      "inputs": [
        {
          "internalType": "address",
          "name": "user",
          "type": "address"
        }
      ],
      "name": "hasBalance",
      "outputs": [
        {
          "internalType": "bool",
          "name": "",
          "type": "bool"
        }
      ],
      "stateMutability": "view",
      "type": "function"
    },
    {
      "inputs": [
        {
          "internalType": "address",
          "name": "",
          "type": "address"
        }
      ],
      "name": "protocolNames",
      "outputs": [
        {
          "internalType": "string",
          "name": "",
          "type": "string"
        }
      ],
      "stateMutability": "view",
      "type": "function"
    },
    {
      "inputs": [
        {
          "internalType": "address",
          "name": "protocol",
          "type": "address"
        },
        {
          "internalType": "string",
          "name": "name",
          "type": "string"
        }
      ],
      "name": "registerProtocol",
      "outputs": [],
      "stateMutability": "nonpayable",
      "type": "function"
    },
    {
      "inputs": [
        {
          "internalType": "address",
          "name": "protocol",
          "type": "address"
        }
      ],
      "name": "revokeProtocol",
      "outputs": [],
      "stateMutability": "nonpayable",
      "type": "function"
    },
    {
      "inputs": [
        {
          "internalType": "address",
          "name": "from",
          "type": "address"
        },
        {
          "internalType": "address",
          "name": "to",
          "type": "address"
        },
        {
          "internalType": "euint64",
          "name": "encryptedAmount",
          "type": "bytes32"
        },
        {
          "internalType": "uint8",
          "name": "routingMode",
          "type": "uint8"
        }
      ],
      "name": "routeFromProtocol",
      "outputs": [],
      "stateMutability": "nonpayable",
      "type": "function"
    },
    {
      "inputs": [
        {
          "internalType": "address",
          "name": "recipient",
          "type": "address"
        },
        {
          "internalType": "externalEuint64",
          "name": "encryptedAmount",
          "type": "bytes32"
        },
        {
          "internalType": "bytes",
          "name": "inputProof",
          "type": "bytes"
        },
        {
          "internalType": "uint8",
          "name": "mode",
          "type": "uint8"
        }
      ],
      "name": "routePayment",
      "outputs": [],
      "stateMutability": "nonpayable",
      "type": "function"
    },
    {
      "inputs": [
        {
          "internalType": "address",
          "name": "",
          "type": "address"
        }
      ],
      "name": "sanctioned",
      "outputs": [
        {
          "internalType": "bool",
          "name": "",
          "type": "bool"
        }
      ],
      "stateMutability": "view",
      "type": "function"
    },
    {
      "inputs": [
        {
          "internalType": "address",
          "name": "_yieldVault",
          "type": "address"
        },
        {
          "internalType": "address",
          "name": "_vestingModule",
          "type": "address"
        }
      ],
      "name": "setModules",
      "outputs": [],
      "stateMutability": "nonpayable",
      "type": "function"
    },
    {
      "inputs": [
        {
          "internalType": "address",
          "name": "user",
          "type": "address"
        },
        {
          "internalType": "bool",
          "name": "status",
          "type": "bool"
        }
      ],
      "name": "setSanctioned",
      "outputs": [],
      "stateMutability": "nonpayable",
      "type": "function"
    },
    {
      "inputs": [
        {
          "internalType": "address",
          "name": "newAdmin",
          "type": "address"
        }
      ],
      "name": "transferAdmin",
      "outputs": [],
      "stateMutability": "nonpayable",
      "type": "function"
    },
    {
      "inputs": [],
      "name": "vestingModule",
      "outputs": [
        {
          "internalType": "contract IConfidentialVestingModule",
          "name": "",
          "type": "address"
        }
      ],
      "stateMutability": "view",
      "type": "function"
    },
    {
      "inputs": [],
      "name": "yieldVault",
      "outputs": [
        {
          "internalType": "contract IConfidentialYieldVault",
          "name": "",
          "type": "address"
        }
      ],
      "stateMutability": "view",
      "type": "function"
    }
  ],
  "bytecode": "0x60a060405234801561000f575f5ffd5b5060405161294a38038061294a83398101604081905261002e916103bc565b6100e26100396101f2565b80517f9e7b61f58c47dc699ac88507c4f5bb9f121c03808c5676a8078fe583e464970080546001600160a01b03199081166001600160a01b039384161790915560208301517f9e7b61f58c47dc699ac88507c4f5bb9f121c03808c5676a8078fe583e46497018054831691841691909117905560408301517f9e7b61f58c47dc699ac88507c4f5bb9f121c03808c5676a8078fe583e46497028054909216921691909117905550565b6001600160a01b0382166101515760405162461bcd60e51b815260206004820152602b60248201527f436f6e666964656e7469616c5061796d656e74476174653a207a65726f20635560448201526a534454206164647265737360a81b60648201526084015b60405180910390fd5b6001600160a01b0381166101be5760405162461bcd60e51b815260206004820152602e60248201527f436f6e666964656e7469616c5061796d656e74476174653a207a65726f20726560448201526d676973747279206164647265737360901b6064820152608401610148565b5f80546001600160a01b031990811633179091556001600160a01b03928316608052600380549290931691161790556103ed565b604080516060810182525f80825260208201819052918101919091524660010361028b575060408051606080820183525f8083526020808401829052928401528251908101835273ca2e8f1f656cd25c01f05d0b243ab1ecd4a8ffb6815273d82385dada1ae3e969447f20a3164f6213100e75918101919091527377627828a55156b04ac0dc0eb30467f1a552bb039181019190915290565b4662aa36a70361030a575060408051606080820183525f8083526020808401829052928401528251908101835273f0ffdc93b7e186bc2f8cb3daa75d86d1930a433d81527392c920834ec8941d2c77d188936e1f7a6f49c1279181019190915273be0e383937d564d7ff0bc3b46c51f0bf8d5c311a9181019190915290565b46617a6903610388575060408051606080820183525f808352602080840182905292840152825190810183527350157cffd6bbfa2dece204a89ec419c23ef5755d815273e3a9105a3a932253a70f126eb1e3b589c643dd249181019190915273be0e383937d564d7ff0bc3b46c51f0bf8d5c311a9181019190915290565b6040516373cac13b60e01b815260040160405180910390fd5b80516001600160a01b03811681146103b7575f5ffd5b919050565b5f5f604083850312156103cd575f5ffd5b6103d6836103a1565b91506103e4602084016103a1565b90509250929050565b60805161250d61043d5f395f8181610193015281816111070152818161114e0152818161150801528181611556015281816116bc0152818161170a015281816117f70152611842015261250d5ff3fe608060405234801561000f575f5ffd5b506004361061016c575f3560e01c80638927b030116100d9578063c76af7b011610093578063e85790151161006e578063e85790151461035a578063eae4f19f1461036d578063f851a4401461038f578063f8b2cb4f146103a1575f5ffd5b8063c76af7b014610321578063d74a5d0014610334578063e29973fc14610347575f5ffd5b80638927b030146102b657806395daa599146102be578063a0f24fb1146102d1578063a7f8a5e2146102f1578063b536841514610304578063c4d109d714610317575f5ffd5b806340c340ec1161012a57806340c340ec1461022b5780634731765c1461024d5780634fbe6b0b1461026257806375829def1461027557806387096856146102885780638827ffa5146102a0575f5ffd5b806243ee53146101705780630614f2c91461018e5780630730d1b5146101cd578063125d566c146101d557806322b2678a146101dd578063300c357014610218575b5f5ffd5b6101775f81565b60405160ff90911681526020015b60405180910390f35b6101b57f000000000000000000000000000000000000000000000000000000000000000081565b6040516001600160a01b039091168152602001610185565b610177600181565b610177600281565b6102086101eb366004611e67565b6001600160a01b03165f9081526006602052604090205460ff1690565b6040519015158152602001610185565b6003546101b5906001600160a01b031681565b610208610239366004611e67565b60076020525f908152604090205460ff1681565b61026061025b366004611ec5565b6103c9565b005b610260610270366004611f24565b610613565b610260610283366004611e67565b610824565b61029262278d0081565b604051908152602001610185565b6102a8610910565b604051610185929190611fbc565b610292610b01565b6102606102cc366004612065565b610b0f565b6102e46102df366004611e67565b610c99565b60405161018591906120af565b6001546101b5906001600160a01b031681565b610260610312366004611e67565b610d30565b61029262ed4e0081565b6002546101b5906001600160a01b031681565b6102606103423660046120c1565b610f24565b6102606103553660046120f2565b6110bf565b610260610368366004612131565b611281565b61020861037b366004611e67565b60046020525f908152604090205460ff1681565b5f546101b5906001600160a01b031681565b6102926103af366004611e67565b6001600160a01b03165f9081526005602052604090205490565b5f546001600160a01b031633146103fb5760405162461bcd60e51b81526004016103f290612166565b60405180910390fd5b6001600160a01b0383166104685760405162461bcd60e51b815260206004820152602e60248201527f436f6e666964656e7469616c5061796d656e74476174653a207a65726f20707260448201526d6f746f636f6c206164647265737360901b60648201526084016103f2565b806104ca5760405162461bcd60e51b815260206004820152602c60248201527f436f6e666964656e7469616c5061796d656e74476174653a20656d707479207060448201526b726f746f636f6c206e616d6560a01b60648201526084016103f2565b6001600160a01b0383165f9081526007602052604090205460ff161561054f5760405162461bcd60e51b815260206004820152603460248201527f436f6e666964656e7469616c5061796d656e74476174653a2070726f746f636f6044820152731b08185b1c9958591e481c9959da5cdd195c995960621b60648201526084016103f2565b6001600160a01b0383165f908152600760209081526040808320805460ff191660011790556008909152902061058682848361224a565b50600980546001810182555f919091527f6e1540171b6c0c960b71a7020d9f60077f6af931a8bbf590da0223dacf75c7af0180546001600160a01b0319166001600160a01b0385169081179091556040517f3d0ae399c7661d272a8f6e38aae54483ab19ef5e8932115328ddce3363d304aa906106069085908590612304565b60405180910390a2505050565b6001600160a01b0385166106795760405162461bcd60e51b815260206004820152602760248201527f436f6e666964656e7469616c5061796d656e74476174653a207a65726f20726560448201526618da5c1a595b9d60ca1b60648201526084016103f2565b600260ff8216111561069d5760405162461bcd60e51b81526004016103f290612332565b335f9081526006602052604090205460ff166107075760405162461bcd60e51b815260206004820152602360248201527f436f6e666964656e7469616c5061796d656e74476174653a206e6f206465706f6044820152621cda5d60ea1b60648201526084016103f2565b5f6107478585858080601f0160208091040260200160405190810160405280939291908181526020018383808284375f9201919091525061130892505050565b335f90815260046020526040812054919250906107679060ff1615611377565b90505f61077d82846107785f611392565b6113a8565b335f908152600560205260408120549192509061079b9083906113f1565b90505f6107ac82846107785f611392565b335f90815260056020526040812054919250906107e39084906107cf908761141f565b335f908152600560205260409020546113a8565b90506107ee8161144d565b506107f9813361146d565b50335f818152600560205260409020829055610817908c848a611490565b5050505050505050505050565b5f546001600160a01b0316331461084d5760405162461bcd60e51b81526004016103f290612166565b6001600160a01b0381166108b75760405162461bcd60e51b815260206004820152602b60248201527f436f6e666964656e7469616c5061796d656e74476174653a207a65726f20616460448201526a6d696e206164647265737360a81b60648201526084016103f2565b5f80546040516001600160a01b03808516939216917ff8ccb027dfcd135e000e9d45e6cc2d662578a8825d4c45b5e32e0adf67e79ec691a35f80546001600160a01b0319166001600160a01b0392909216919091179055565b60095460609081908067ffffffffffffffff811115610931576109316121b2565b60405190808252806020026020018201604052801561095a578160200160208202803683370190505b5092508067ffffffffffffffff811115610976576109766121b2565b6040519080825280602002602001820160405280156109a957816020015b60608152602001906001900390816109945790505b5091505f5b81811015610afb57600981815481106109c9576109c9612377565b905f5260205f20015f9054906101000a90046001600160a01b03168482815181106109f6576109f6612377565b60200260200101906001600160a01b031690816001600160a01b03168152505060085f60098381548110610a2c57610a2c612377565b5f9182526020808320909101546001600160a01b0316835282019290925260400190208054610a5a906121c6565b80601f0160208091040260200160405190810160405280929190818152602001828054610a86906121c6565b8015610ad15780601f10610aa857610100808354040283529160200191610ad1565b820191905f5260205f20905b815481529060010190602001808311610ab457829003601f168201915b5050505050838281518110610ae857610ae8612377565b60209081029190910101526001016109ae565b50509091565b5f610b0a6118f6565b905090565b335f9081526007602052604090205460ff16610b935760405162461bcd60e51b815260206004820152603d60248201527f436f6e666964656e7469616c5061796d656e74476174653a2063616c6c65722060448201527f6973206e6f7420616e20617574686f72697a65642070726f746f636f6c00000060648201526084016103f2565b6001600160a01b038416610bfc5760405162461bcd60e51b815260206004820152602a60248201527f436f6e666964656e7469616c5061796d656e74476174653a207a65726f2066726044820152696f6d206164647265737360b01b60648201526084016103f2565b6001600160a01b038316610c635760405162461bcd60e51b815260206004820152602860248201527f436f6e666964656e7469616c5061796d656e74476174653a207a65726f20746f604482015267206164647265737360c01b60648201526084016103f2565b600260ff82161115610c875760405162461bcd60e51b81526004016103f290612332565b610c9384848484611490565b50505050565b60086020525f908152604090208054610cb1906121c6565b80601f0160208091040260200160405190810160405280929190818152602001828054610cdd906121c6565b8015610d285780601f10610cff57610100808354040283529160200191610d28565b820191905f5260205f20905b815481529060010190602001808311610d0b57829003601f168201915b505050505081565b5f546001600160a01b03163314610d595760405162461bcd60e51b81526004016103f290612166565b6001600160a01b0381165f9081526007602052604090205460ff16610dd95760405162461bcd60e51b815260206004820152603060248201527f436f6e666964656e7469616c5061796d656e74476174653a2070726f746f636f60448201526f1b081b9bdd081c9959da5cdd195c995960821b60648201526084016103f2565b6001600160a01b0381165f908152600760205260408120805460ff19169055600954905b81811015610eec57826001600160a01b031660098281548110610e2257610e22612377565b5f918252602090912001546001600160a01b031603610ee4576009610e4860018461239f565b81548110610e5857610e58612377565b5f91825260209091200154600980546001600160a01b039092169183908110610e8357610e83612377565b905f5260205f20015f6101000a8154816001600160a01b0302191690836001600160a01b031602179055506009805480610ebf57610ebf6123b2565b5f8281526020902081015f1990810180546001600160a01b0319169055019055610eec565b600101610dfd565b506040516001600160a01b038316907fc404b0a259c38f3ff1997a9e72c3b9092241c72b217003c13229492901e25f2e905f90a25050565b5f546001600160a01b03163314610f4d5760405162461bcd60e51b81526004016103f290612166565b6001600160a01b038216610fb75760405162461bcd60e51b815260206004820152602b60248201527f436f6e666964656e7469616c5061796d656e74476174653a207a65726f20766160448201526a756c74206164647265737360a81b60648201526084016103f2565b6001600160a01b0381166110235760405162461bcd60e51b815260206004820152602d60248201527f436f6e666964656e7469616c5061796d656e74476174653a207a65726f20766560448201526c7374696e67206164647265737360981b60648201526084016103f2565b6001546001600160a01b0316156110915760405162461bcd60e51b815260206004820152602c60248201527f436f6e666964656e7469616c5061796d656e74476174653a206d6f64756c657360448201526b08185b1c9958591e481cd95d60a21b60648201526084016103f2565b600180546001600160a01b039384166001600160a01b03199182161790915560028054929093169116179055565b5f6110ff8484848080601f0160208091040260200160405190810160405280939291908181526020018383808284375f9201919091525061130892505050565b905061112b817f000000000000000000000000000000000000000000000000000000000000000061192a565b5060405163eb3155b560e01b8152336004820152306024820152604481018290527f00000000000000000000000000000000000000000000000000000000000000006001600160a01b03169063eb3155b5906064015f604051808303815f87803b158015611197575f5ffd5b505af11580156111a9573d5f5f3e3d5ffd5b5050335f9081526006602052604090205460ff1615915061120a905057335f908152600560205260408120546111df9083611946565b90506111ea8161144d565b506111f5813361146d565b50335f90815260056020526040902055611246565b6112138161144d565b5061121e813361146d565b50335f90815260056020908152604080832084905560069091529020805460ff191660011790555b60405142815233907f2da466a7b24304f47e87fa2e1e5a81b9831ce54fec19055ce277ca2f39ba42c49060200160405180910390a250505050565b5f546001600160a01b031633146112aa5760405162461bcd60e51b81526004016103f290612166565b6001600160a01b0382165f81815260046020908152604091829020805460ff191685151590811790915591519182527f087c51f3303033f9686297ea31584d2ad5219efa00dc6204ec99425baf995a98910160405180910390a25050565b5f81515f146113245761131d83836005611974565b9050611371565b825f81900361133e576113365f611392565b915050611371565b6113488133611a6e565b61136e57604051630276b5d960e01b8152600481018290523360248201526044016103f2565b90505b92915050565b5f61137182611386575f611389565b60015b60ff165f611afa565b5f6113718267ffffffffffffffff166005611afa565b5f836113ba576113b75f611377565b93505b826113cb576113c85f611392565b92505b816113dc576113d95f611392565b91505b6113e7848484611b89565b90505b9392505050565b5f82611403576114005f611392565b92505b81611414576114115f611392565b91505b61136e83835f611c1f565b5f826114315761142e5f611392565b92505b816114425761143f5f611392565b91505b61136e83835f611ccc565b5f8161145f5761145c5f611392565b91505b6114698230611d2f565b5090565b5f8261147f5761147c5f611392565b92505b6114898383611d2f565b5090919050565b5f1960ff82160161162d576001546001600160a01b03166115025760405162461bcd60e51b815260206004820152602660248201527f436f6e666964656e7469616c5061796d656e74476174653a207661756c74206e6044820152651bdd081cd95d60d21b60648201526084016103f2565b61152c827f000000000000000000000000000000000000000000000000000000000000000061192a565b50600154604051632df5f6bf60e11b81526001600160a01b039182166004820152602481018490527f000000000000000000000000000000000000000000000000000000000000000090911690635bebed7e906044015f604051808303815f87803b158015611599575f5ffd5b505af11580156115ab573d5f5f3e3d5ffd5b50506001546115c692508491506001600160a01b031661192a565b5060015460405163b9e1aa0360e01b81526001600160a01b038581166004830152602482018590529091169063b9e1aa03906044015f604051808303815f87803b158015611612575f5ffd5b505af1158015611624573d5f5f3e3d5ffd5b5050505061189a565b60011960ff8216016117f1576002546001600160a01b03166116a25760405162461bcd60e51b815260206004820152602860248201527f436f6e666964656e7469616c5061796d656e74476174653a2076657374696e67604482015267081b9bdd081cd95d60c21b60648201526084016103f2565b5f6116b062278d00426123c6565b905062ed4e006116e0847f000000000000000000000000000000000000000000000000000000000000000061192a565b50600254604051632df5f6bf60e11b81526001600160a01b039182166004820152602481018690527f000000000000000000000000000000000000000000000000000000000000000090911690635bebed7e906044015f604051808303815f87803b15801561174d575f5ffd5b505af115801561175f573d5f5f3e3d5ffd5b505060025461177a92508691506001600160a01b031661192a565b5060025460405163270b938360e21b81526001600160a01b03878116600483015260248201879052604482018590526064820184905290911690639c2e4e0c906084015f604051808303815f87803b1580156117d4575f5ffd5b505af11580156117e6573d5f5f3e3d5ffd5b50505050505061189a565b61181b827f000000000000000000000000000000000000000000000000000000000000000061192a565b50604051632df5f6bf60e11b81526001600160a01b038481166004830152602482018490527f00000000000000000000000000000000000000000000000000000000000000001690635bebed7e906044015f604051808303815f87803b158015611883575f5ffd5b505af1158015611895573d5f5f3e3d5ffd5b505050505b6118a4828461146d565b506040805160ff831681524260208201526001600160a01b0380861692908716917fd01aba031a4bb23d318c9b7825aaf325b39be39953421d3eabc1864e681060bf910160405180910390a350505050565b5f466001036119055750600190565b4662aa36a703611916575061271190565b46617a690361192557505f1990565b505f90565b5f8261193c576119395f611392565b92505b6114898383611da3565b5f82611958576119555f611392565b92505b81611969576119665f611392565b91505b61136e83835f611de9565b5f5160206124985f395f51905f525460405163045fc19560e11b81525f915f5160206124b85f395f51905f52916001600160a01b03909116906308bf832a906119c79088903390899089906004016123f9565b6020604051808303815f875af11580156119e3573d5f5f3e3d5ffd5b505050506040513d601f19601f82011682018060405250810190611a079190612431565b8154604051630f8e573b60e21b8152600481018390523360248201529193506001600160a01b031690633e395cec906044015f604051808303815f87803b158015611a50575f5ffd5b505af1158015611a62573d5f5f3e3d5ffd5b50505050509392505050565b5f805f5160206124b85f395f51905f5280546040516382027b6d60e01b8152600481018790526001600160a01b0386811660248301529293509116906382027b6d90604401602060405180830381865afa158015611ace573d5f5f3e3d5ffd5b505050506040513d601f19601f82011682018060405250810190611af29190612448565b949350505050565b5f5160206124985f395f51905f5254604051639cd07acb60e01b81525f915f5160206124b85f395f51905f52916001600160a01b0390911690639cd07acb90611b499087908790600401612463565b6020604051808303815f875af1158015611b65573d5f5f3e3d5ffd5b505050506040513d601f19601f82011682018060405250810190611af29190612431565b5f805f5160206124b85f395f51905f526001810154604051637702dcff60e01b81526004810188905260248101879052604481018690529192506001600160a01b031690637702dcff906064016020604051808303815f875af1158015611bf2573d5f5f3e3d5ffd5b505050506040513d601f19601f82011682018060405250810190611c169190612431565b95945050505050565b5f5f8215611c325750600160f81b611c35565b505f5b5f5160206124985f395f51905f5254604051631d44e90160e21b81525f5160206124b85f395f51905f52916001600160a01b031690637513a40490611c8290899089908790600401612477565b6020604051808303815f875af1158015611c9e573d5f5f3e3d5ffd5b505050506040513d601f19601f82011682018060405250810190611cc29190612431565b9695505050505050565b5f5f8215611cdf5750600160f81b611ce2565b505f5b5f5160206124985f395f51905f52546040516303056db360e31b81525f5160206124b85f395f51905f52916001600160a01b03169063182b6d9890611c8290899089908790600401612477565b5f5160206124b85f395f51905f528054604051635ca4b5b160e11b8152600481018590526001600160a01b0384811660248301529091169063b9496b62906044015b5f604051808303815f87803b158015611d88575f5ffd5b505af1158015611d9a573d5f5f3e3d5ffd5b50505050505050565b5f5160206124b85f395f51905f528054604051630f8e573b60e21b8152600481018590526001600160a01b03848116602483015290911690633e395cec90604401611d71565b5f5f8215611dfc5750600160f81b611dff565b505f5b5f5160206124985f395f51905f525460405163022f65e760e31b81525f5160206124b85f395f51905f52916001600160a01b03169063117b2f3890611c8290899089908790600401612477565b80356001600160a01b0381168114611e62575f5ffd5b919050565b5f60208284031215611e77575f5ffd5b61136e82611e4c565b5f5f83601f840112611e90575f5ffd5b50813567ffffffffffffffff811115611ea7575f5ffd5b602083019150836020828501011115611ebe575f5ffd5b9250929050565b5f5f5f60408486031215611ed7575f5ffd5b611ee084611e4c565b9250602084013567ffffffffffffffff811115611efb575f5ffd5b611f0786828701611e80565b9497909650939450505050565b803560ff81168114611e62575f5ffd5b5f5f5f5f5f60808688031215611f38575f5ffd5b611f4186611e4c565b945060208601359350604086013567ffffffffffffffff811115611f63575f5ffd5b611f6f88828901611e80565b9094509250611f82905060608701611f14565b90509295509295909350565b5f81518084528060208401602086015e5f602082860101526020601f19601f83011685010191505092915050565b604080825283519082018190525f9060208501906060840190835b81811015611ffe5783516001600160a01b0316835260209384019390920191600101611fd7565b50508381036020850152809150845180825260208201925060208160051b830101602087015f5b8381101561205757601f19858403018652612041838351611f8e565b6020968701969093509190910190600101612025565b509098975050505050505050565b5f5f5f5f60808587031215612078575f5ffd5b61208185611e4c565b935061208f60208601611e4c565b9250604085013591506120a460608601611f14565b905092959194509250565b602081525f61136e6020830184611f8e565b5f5f604083850312156120d2575f5ffd5b6120db83611e4c565b91506120e960208401611e4c565b90509250929050565b5f5f5f60408486031215612104575f5ffd5b83359250602084013567ffffffffffffffff811115611efb575f5ffd5b801515811461212e575f5ffd5b50565b5f5f60408385031215612142575f5ffd5b61214b83611e4c565b9150602083013561215b81612121565b809150509250929050565b6020808252602c908201527f436f6e666964656e7469616c5061796d656e74476174653a2063616c6c65722060408201526b34b9903737ba1030b236b4b760a11b606082015260800190565b634e487b7160e01b5f52604160045260245ffd5b600181811c908216806121da57607f821691505b6020821081036121f857634e487b7160e01b5f52602260045260245ffd5b50919050565b601f82111561224557805f5260205f20601f840160051c810160208510156122235750805b601f840160051c820191505b81811015612242575f815560010161222f565b50505b505050565b67ffffffffffffffff831115612262576122626121b2565b6122768361227083546121c6565b836121fe565b5f601f8411600181146122a7575f85156122905750838201355b5f19600387901b1c1916600186901b178355612242565b5f83815260208120601f198716915b828110156122d657868501358255602094850194600190920191016122b6565b50868210156122f2575f1960f88860031b161c19848701351681555b505060018560011b0183555050505050565b60208152816020820152818360408301375f818301604090810191909152601f909201601f19160101919050565b60208082526025908201527f436f6e666964656e7469616c5061796d656e74476174653a20696e76616c6964604082015264206d6f646560d81b606082015260800190565b634e487b7160e01b5f52603260045260245ffd5b634e487b7160e01b5f52601160045260245ffd5b818103818111156113715761137161238b565b634e487b7160e01b5f52603160045260245ffd5b808201808211156113715761137161238b565b605481106123f557634e487b7160e01b5f52602160045260245ffd5b9052565b8481526001600160a01b03841660208201526080604082018190525f9061242290830185611f8e565b9050611c1660608301846123d9565b5f60208284031215612441575f5ffd5b5051919050565b5f60208284031215612458575f5ffd5b81516113ea81612121565b828152604081016113ea60208301846123d9565b92835260208301919091526001600160f81b03191660408201526060019056fe9e7b61f58c47dc699ac88507c4f5bb9f121c03808c5676a8078fe583e46497019e7b61f58c47dc699ac88507c4f5bb9f121c03808c5676a8078fe583e4649700a26469706673582212203eda0d05699e56685efed764290b806b7b27d7618995d10efd1fe38a1c528f0364736f6c634300081c0033",
  "linkReferences": {},
  "deployedLinkReferences": {}
}