{
  "_format": "hh-sol-artifact-1",
  "contractName": "ConfidentialPaymentGate",
  "sourceName": "contracts/ConfidentialPaymentGate.sol",
  "abi": [
    {
      "inputs": [
        {
          "internalType": "address",
          "name": "_cUSDT",
          "type": "address"
        },
        {
          "internalType": "address",
          "name": "_flowRegistry",
          "type": "address"
        }
      ],
      "stateMutability": "nonpayable",
      "type": "constructor"
    },
    {
      "inputs": [
        {
          "internalType": "bytes32",
          "name": "handle",
          "type": "bytes32"
        },
        {
          "internalType": "address",
          "name": "sender",
          "type": "address"
        }
      ],
      "name": "SenderNotAllowedToUseHandle",
      "type": "error"
    },
    {
      "inputs": [],
      "name": "ZamaProtocolUnsupported",
      "type": "error"
    },
    {
      "anonymous": false,
      "inputs": [
        {
          "indexed": true,
          "internalType": "address",
          "name": "oldAdmin",
          "type": "address"
        },
        {
          "indexed": true,
          "internalType": "address",
          "name": "newAdmin",
          "type": "address"
        }
      ],
      "name": "AdminTransferred",
      "type": "event"
    },
    {
      "anonymous": false,
      "inputs": [
        {
          "indexed": true,
          "internalType": "address",
          "name": "user",
          "type": "address"
        },
        {
          "indexed": false,
          "internalType": "uint256",
          "name": "timestamp",
          "type": "uint256"
        }
      ],
      "name": "Deposited",
      "type": "event"
    },
    {
      "anonymous": false,
      "inputs": [
        {
          "indexed": true,
          "internalType": "bytes32",
          "name": "intentId",
          "type": "bytes32"
        }
      ],
      "name": "PaymentIntentCancelled",
      "type": "event"
    },
    {
      "anonymous": false,
      "inputs": [
        {
          "indexed": true,
          "internalType": "bytes32",
          "name": "intentId",
          "type": "bytes32"
        },
        {
          "indexed": true,
          "internalType": "address",
          "name": "from",
          "type": "address"
        },
        {
          "indexed": true,
          "internalType": "address",
          "name": "to",
          "type": "address"
        },
        {
          "indexed": false,
          "internalType": "uint8",
          "name": "routingMode",
          "type": "uint8"
        },
        {
          "indexed": false,
          "internalType": "uint256",
          "name": "expiresAt",
          "type": "uint256"
        }
      ],
      "name": "PaymentIntentCreated",
      "type": "event"
    },
    {
      "anonymous": false,
      "inputs": [
        {
          "indexed": true,
          "internalType": "bytes32",
          "name": "intentId",
          "type": "bytes32"
        },
        {
          "indexed": false,
          "internalType": "uint256",
          "name": "timestamp",
          "type": "uint256"
        }
      ],
      "name": "PaymentIntentSettled",
      "type": "event"
    },
    {
      "anonymous": false,
      "inputs": [
        {
          "indexed": true,
          "internalType": "address",
          "name": "from",
          "type": "address"
        },
        {
          "indexed": true,
          "internalType": "address",
          "name": "to",
          "type": "address"
        },
        {
          "indexed": false,
          "internalType": "uint8",
          "name": "mode",
          "type": "uint8"
        },
        {
          "indexed": false,
          "internalType": "uint256",
          "name": "timestamp",
          "type": "uint256"
        }
      ],
      "name": "PaymentRouted",
      "type": "event"
    },
    {
      "anonymous": false,
      "inputs": [
        {
          "indexed": true,
          "internalType": "address",
          "name": "protocol",
          "type": "address"
        },
        {
          "indexed": false,
          "internalType": "string",
          "name": "name",
          "type": "string"
        }
      ],
      "name": "ProtocolRegistered",
      "type": "event"
    },
    {
      "anonymous": false,
      "inputs": [
        {
          "indexed": true,
          "internalType": "address",
          "name": "protocol",
          "type": "address"
        }
      ],
      "name": "ProtocolRevoked",
      "type": "event"
    },
    {
      "anonymous": false,
      "inputs": [
        {
          "indexed": true,
          "internalType": "address",
          "name": "user",
          "type": "address"
        },
        {
          "indexed": false,
          "internalType": "bool",
          "name": "status",
          "type": "bool"
        }
      ],
      "name": "SanctionUpdated",
      "type": "event"
    },
    {
      "inputs": [],
      "name": "DEFAULT_CLIFF_OFFSET",
      "outputs": [
        {
          "internalType": "uint256",
          "name": "",
          "type": "uint256"
        }
      ],
      "stateMutability": "view",
      "type": "function"
    },
    {
      "inputs": [],
      "name": "DEFAULT_VEST_DURATION",
      "outputs": [
        {
          "internalType": "uint256",
          "name": "",
          "type": "uint256"
        }
      ],
      "stateMutability": "view",
      "type": "function"
    },
    {
      "inputs": [],
      "name": "MODE_LIQUID",
      "outputs": [
        {
          "internalType": "uint8",
          "name": "",
          "type": "uint8"
        }
      ],
      "stateMutability": "view",
      "type": "function"
    },
    {
      "inputs": [],
      "name": "MODE_VESTING",
      "outputs": [
        {
          "internalType": "uint8",
          "name": "",
          "type": "uint8"
        }
      ],
      "stateMutability": "view",
      "type": "function"
    },
    {
      "inputs": [],
      "name": "MODE_YIELD",
      "outputs": [
        {
          "internalType": "uint8",
          "name": "",
          "type": "uint8"
        }
      ],
      "stateMutability": "view",
      "type": "function"
    },
    {
      "inputs": [],
      "name": "admin",
      "outputs": [
        {
          "internalType": "address",
          "name": "",
          "type": "address"
        }
      ],
      "stateMutability": "view",
      "type": "function"
    },
    {
      "inputs": [
        {
          "internalType": "address",
          "name": "",
          "type": "address"
        }
      ],
      "name": "authorizedProtocols",
      "outputs": [
        {
          "internalType": "bool",
          "name": "",
          "type": "bool"
        }
      ],
      "stateMutability": "view",
      "type": "function"
    },
    {
      "inputs": [],
      "name": "cUSDT",
      "outputs": [
        {
          "internalType": "address",
          "name": "",
          "type": "address"
        }
      ],
      "stateMutability": "view",
      "type": "function"
    },
    {
      "inputs": [
        {
          "internalType": "bytes32",
          "name": "intentId",
          "type": "bytes32"
        }
      ],
      "name": "cancelIntent",
      "outputs": [],
      "stateMutability": "nonpayable",
      "type": "function"
    },
    {
      "inputs": [],
      "name": "confidentialProtocolId",
      "outputs": [
        {
          "internalType": "uint256",
          "name": "",
          "type": "uint256"
        }
      ],
      "stateMutability": "view",
      "type": "function"
    },
    {
      "inputs": [
        {
          "internalType": "address",
          "name": "to",
          "type": "address"
        },
        {
          "internalType": "externalEuint64",
          "name": "encryptedAmount",
          "type": "bytes32"
        },
        {
          "internalType": "bytes",
          "name": "inputProof",
          "type": "bytes"
        },
        {
          "internalType": "uint8",
          "name": "routingMode",
          "type": "uint8"
        },
        {
          "internalType": "uint256",
          "name": "expiresAt",
          "type": "uint256"
        }
      ],
      "name": "createPaymentIntent",
      "outputs": [
        {
          "internalType": "bytes32",
          "name": "intentId",
          "type": "bytes32"
        }
      ],
      "stateMutability": "nonpayable",
      "type": "function"
    },
    {
      "inputs": [
        {
          "internalType": "externalEuint64",
          "name": "encryptedAmount",
          "type": "bytes32"
        },
        {
          "internalType": "bytes",
          "name": "inputProof",
          "type": "bytes"
        }
      ],
      "name": "deposit",
      "outputs": [],
      "stateMutability": "nonpayable",
      "type": "function"
    },
    {
      "inputs": [
        {
          "internalType": "bytes32",
          "name": "intentId",
          "type": "bytes32"
        }
      ],
      "name": "executeIntent",
      "outputs": [],
      "stateMutability": "nonpayable",
      "type": "function"
    },
    {
      "inputs": [],
      "name": "flowRegistry",
      "outputs": [
        {
          "internalType": "contract FlowRegistry",
          "name": "",
          "type": "address"
        }
      ],
      "stateMutability": "view",
      "type": "function"
    },
    {
      "inputs": [
        {
          "internalType": "address",
          "name": "user",
          "type": "address"
        }
      ],
      "name": "getBalance",
      "outputs": [
        {
          "internalType": "euint64",
          "name": "",
          "type": "bytes32"
        }
      ],
      "stateMutability": "view",
      "type": "function"
    },
    {
      "inputs": [],
      "name": "getRegisteredProtocols",
      "outputs": [
        {
          "internalType": "address[]",
          "name": "protocols",
          "type": "address[]"
        },
        {
          "internalType": "string[]",
          "name": "names",
          "type": "string[]"
        }
      ],
      "stateMutability": "view",
      "type": "function"
    },
    {
      "inputs": [
        {
          "internalType": "address",
          "name": "user",
          "type": "address"
        }
      ],
      "name": "hasBalance",
      "outputs": [
        {
          "internalType": "bool",
          "name": "",
          "type": "bool"
        }
      ],
      "stateMutability": "view",
      "type": "function"
    },
    {
      "inputs": [
        {
          "internalType": "bytes32",
          "name": "",
          "type": "bytes32"
        }
      ],
      "name": "intents",
      "outputs": [
        {
          "internalType": "address",
          "name": "from",
          "type": "address"
        },
        {
          "internalType": "address",
          "name": "to",
          "type": "address"
        },
        {
          "internalType": "euint64",
          "name": "encryptedAmount",
          "type": "bytes32"
        },
        {
          "internalType": "uint8",
          "name": "routingMode",
          "type": "uint8"
        },
        {
          "internalType": "uint256",
          "name": "expiresAt",
          "type": "uint256"
        },
        {
          "internalType": "bool",
          "name": "executed",
          "type": "bool"
        },
        {
          "internalType": "bool",
          "name": "cancelled",
          "type": "bool"
        }
      ],
      "stateMutability": "view",
      "type": "function"
    },
    {
      "inputs": [
        {
          "internalType": "address",
          "name": "",
          "type": "address"
        }
      ],
      "name": "protocolNames",
      "outputs": [
        {
          "internalType": "string",
          "name": "",
          "type": "string"
        }
      ],
      "stateMutability": "view",
      "type": "function"
    },
    {
      "inputs": [
        {
          "internalType": "address",
          "name": "protocol",
          "type": "address"
        },
        {
          "internalType": "string",
          "name": "name",
          "type": "string"
        }
      ],
      "name": "registerProtocol",
      "outputs": [],
      "stateMutability": "nonpayable",
      "type": "function"
    },
    {
      "inputs": [
        {
          "internalType": "address",
          "name": "protocol",
          "type": "address"
        }
      ],
      "name": "revokeProtocol",
      "outputs": [],
      "stateMutability": "nonpayable",
      "type": "function"
    },
    {
      "inputs": [
        {
          "internalType": "address",
          "name": "from",
          "type": "address"
        },
        {
          "internalType": "address",
          "name": "to",
          "type": "address"
        },
        {
          "internalType": "euint64",
          "name": "encryptedAmount",
          "type": "bytes32"
        },
        {
          "internalType": "uint8",
          "name": "routingMode",
          "type": "uint8"
        }
      ],
      "name": "routeFromProtocol",
      "outputs": [],
      "stateMutability": "nonpayable",
      "type": "function"
    },
    {
      "inputs": [
        {
          "internalType": "address",
          "name": "recipient",
          "type": "address"
        },
        {
          "internalType": "externalEuint64",
          "name": "encryptedAmount",
          "type": "bytes32"
        },
        {
          "internalType": "bytes",
          "name": "inputProof",
          "type": "bytes"
        },
        {
          "internalType": "uint8",
          "name": "mode",
          "type": "uint8"
        }
      ],
      "name": "routePayment",
      "outputs": [],
      "stateMutability": "nonpayable",
      "type": "function"
    },
    {
      "inputs": [
        {
          "internalType": "address",
          "name": "",
          "type": "address"
        }
      ],
      "name": "sanctioned",
      "outputs": [
        {
          "internalType": "bool",
          "name": "",
          "type": "bool"
        }
      ],
      "stateMutability": "view",
      "type": "function"
    },
    {
      "inputs": [
        {
          "internalType": "address",
          "name": "_yieldVault",
          "type": "address"
        },
        {
          "internalType": "address",
          "name": "_vestingModule",
          "type": "address"
        }
      ],
      "name": "setModules",
      "outputs": [],
      "stateMutability": "nonpayable",
      "type": "function"
    },
    {
      "inputs": [
        {
          "internalType": "address",
          "name": "user",
          "type": "address"
        },
        {
          "internalType": "bool",
          "name": "status",
          "type": "bool"
        }
      ],
      "name": "setSanctioned",
      "outputs": [],
      "stateMutability": "nonpayable",
      "type": "function"
    },
    {
      "inputs": [
        {
          "internalType": "address",
          "name": "newAdmin",
          "type": "address"
        }
      ],
      "name": "transferAdmin",
      "outputs": [],
      "stateMutability": "nonpayable",
      "type": "function"
    },
    {
      "inputs": [],
      "name": "vestingModule",
      "outputs": [
        {
          "internalType": "contract IConfidentialVestingModule",
          "name": "",
          "type": "address"
        }
      ],
      "stateMutability": "view",
      "type": "function"
    },
    {
      "inputs": [],
      "name": "yieldVault",
      "outputs": [
        {
          "internalType": "contract IConfidentialYieldVault",
          "name": "",
          "type": "address"
        }
      ],
      "stateMutability": "view",
      "type": "function"
    }
  ],
  "bytecode": "0x60a060405234801561000f575f5ffd5b506040516130ff3803806130ff83398101604081905261002e916103bc565b6100e26100396101f2565b80517f9e7b61f58c47dc699ac88507c4f5bb9f121c03808c5676a8078fe583e464970080546001600160a01b03199081166001600160a01b039384161790915560208301517f9e7b61f58c47dc699ac88507c4f5bb9f121c03808c5676a8078fe583e46497018054831691841691909117905560408301517f9e7b61f58c47dc699ac88507c4f5bb9f121c03808c5676a8078fe583e46497028054909216921691909117905550565b6001600160a01b0382166101515760405162461bcd60e51b815260206004820152602b60248201527f436f6e666964656e7469616c5061796d656e74476174653a207a65726f20635560448201526a534454206164647265737360a81b60648201526084015b60405180910390fd5b6001600160a01b0381166101be5760405162461bcd60e51b815260206004820152602e60248201527f436f6e666964656e7469616c5061796d656e74476174653a207a65726f20726560448201526d676973747279206164647265737360901b6064820152608401610148565b5f80546001600160a01b031990811633179091556001600160a01b03928316608052600380549290931691161790556103ed565b604080516060810182525f80825260208201819052918101919091524660010361028b575060408051606080820183525f8083526020808401829052928401528251908101835273ca2e8f1f656cd25c01f05d0b243ab1ecd4a8ffb6815273d82385dada1ae3e969447f20a3164f6213100e75918101919091527377627828a55156b04ac0dc0eb30467f1a552bb039181019190915290565b4662aa36a70361030a575060408051606080820183525f8083526020808401829052928401528251908101835273f0ffdc93b7e186bc2f8cb3daa75d86d1930a433d81527392c920834ec8941d2c77d188936e1f7a6f49c1279181019190915273be0e383937d564d7ff0bc3b46c51f0bf8d5c311a9181019190915290565b46617a6903610388575060408051606080820183525f808352602080840182905292840152825190810183527350157cffd6bbfa2dece204a89ec419c23ef5755d815273e3a9105a3a932253a70f126eb1e3b589c643dd249181019190915273901f8942346f7ab3a01f6d7613119bca447bb0309181019190915290565b6040516373cac13b60e01b815260040160405180910390fd5b80516001600160a01b03811681146103b7575f5ffd5b919050565b5f5f604083850312156103cd575f5ffd5b6103d6836103a1565b91506103e4602084016103a1565b90509250929050565b608051612cc261043d5f395f81816101ec015281816117a9015281816117f001528181611ba301528181611bf101528181611d5701528181611da501528181611e920152611edd0152612cc25ff3fe608060405234801561000f575f5ffd5b50600436106101c5575f3560e01c80638927b030116100fe578063c76af7b01161009e578063e85790151161006e578063e857901514610490578063eae4f19f146104a3578063f851a440146104c5578063f8b2cb4f146104d7575f5ffd5b8063c76af7b014610444578063d55f960d14610457578063d74a5d001461046a578063e29973fc1461047d575f5ffd5b8063a0f24fb1116100d9578063a0f24fb1146103f4578063a7f8a5e214610414578063b536841514610427578063c4d109d71461043a575f5ffd5b80638927b030146103355780639021578a1461033d57806395daa599146103e1575f5ffd5b806340c340ec1161016957806375829def1161014457806375829def146102ef5780637a1c9ca71461030257806387096856146103155780638827ffa51461031f575f5ffd5b806340c340ec146102a55780634731765c146102c75780634fbe6b0b146102dc575f5ffd5b8063125d566c116101a4578063125d566c1461022e57806322b2678a146102365780632e8e0f2a14610271578063300c357014610292575f5ffd5b806243ee53146101c95780630614f2c9146101e75780630730d1b514610226575b5f5ffd5b6101d05f81565b60405160ff90911681526020015b60405180910390f35b61020e7f000000000000000000000000000000000000000000000000000000000000000081565b6040516001600160a01b0390911681526020016101de565b6101d0600181565b6101d0600281565b610261610244366004612502565b6001600160a01b03165f9081526006602052604090205460ff1690565b60405190151581526020016101de565b61028461027f366004612570565b6104ff565b6040519081526020016101de565b60035461020e906001600160a01b031681565b6102616102b3366004612502565b60076020525f908152604090205460ff1681565b6102da6102d53660046125e2565b610775565b005b6102da6102ea366004612631565b6109b6565b6102da6102fd366004612502565b610bc7565b6102da61031036600461269b565b610cb3565b61028462278d0081565b610327610eab565b6040516101de9291906126e0565b61028461109c565b61039b61034b36600461269b565b600a6020525f90815260409020805460018201546002830154600384015460048501546005909501546001600160a01b03948516959490931693919260ff91821692918082169161010090041687565b604080516001600160a01b0398891681529790961660208801529486019390935260ff90911660608501526080840152151560a0830152151560c082015260e0016101de565b6102da6103ef366004612789565b6110aa565b610407610402366004612502565b6111f3565b6040516101de91906127d3565b60015461020e906001600160a01b031681565b6102da610435366004612502565b61128a565b61028462ed4e0081565b60025461020e906001600160a01b031681565b6102da61046536600461269b565b61147e565b6102da6104783660046127e5565b6115c6565b6102da61048b366004612816565b611761565b6102da61049e366004612855565b611923565b6102616104b1366004612502565b60046020525f908152604090205460ff1681565b5f5461020e906001600160a01b031681565b6102846104e5366004612502565b6001600160a01b03165f9081526005602052604090205490565b5f42821161056e5760405162461bcd60e51b815260206004820152603160248201527f436f6e666964656e7469616c5061796d656e74476174653a20657870697279206044820152706d75737420626520696e2066757475726560781b60648201526084015b60405180910390fd5b6001600160a01b0387166105945760405162461bcd60e51b81526004016105659061288a565b600260ff841611156105b85760405162461bcd60e51b8152600401610565906128d2565b5f6105f88787878080601f0160208091040260200160405190810160405280939291908181526020018383808284375f920191909152506119a392505050565b905061060381611a12565b506040516bffffffffffffffffffffffff1933606090811b821660208401528a901b16603482015242604882015244606882015260880160408051601f19818403018152828252805160209182012060e084018352338085526001600160a01b038d811686850181815287870189815260ff808e1660608b0190815260808b018e81525f60a08d0181815260c08e018281528b8352600a909c52908c90209c518d549089166001600160a01b0319918216178e55955160018e01805491909916961695909517909655915160028b0155905160038a0180549190921660ff1990911617905591516004880155905160059096018054945115156101000261ff00199715159790971661ffff19909516949094179590951790925591519194509084907f408fd5450194aecfc660cf964b1c9ba1d45897f0e694ba719ead327e43f72b9190610762908990899060ff929092168252602082015260400190565b60405180910390a4509695505050505050565b5f546001600160a01b0316331461079e5760405162461bcd60e51b815260040161056590612917565b6001600160a01b03831661080b5760405162461bcd60e51b815260206004820152602e60248201527f436f6e666964656e7469616c5061796d656e74476174653a207a65726f20707260448201526d6f746f636f6c206164647265737360901b6064820152608401610565565b8061086d5760405162461bcd60e51b815260206004820152602c60248201527f436f6e666964656e7469616c5061796d656e74476174653a20656d707479207060448201526b726f746f636f6c206e616d6560a01b6064820152608401610565565b6001600160a01b0383165f9081526007602052604090205460ff16156108f25760405162461bcd60e51b815260206004820152603460248201527f436f6e666964656e7469616c5061796d656e74476174653a2070726f746f636f6044820152731b08185b1c9958591e481c9959da5cdd195c995960621b6064820152608401610565565b6001600160a01b0383165f908152600760209081526040808320805460ff19166001179055600890915290206109298284836129fb565b50600980546001810182555f919091527f6e1540171b6c0c960b71a7020d9f60077f6af931a8bbf590da0223dacf75c7af0180546001600160a01b0319166001600160a01b0385169081179091556040517f3d0ae399c7661d272a8f6e38aae54483ab19ef5e8932115328ddce3363d304aa906109a99085908590612ab5565b60405180910390a2505050565b6001600160a01b038516610a1c5760405162461bcd60e51b815260206004820152602760248201527f436f6e666964656e7469616c5061796d656e74476174653a207a65726f20726560448201526618da5c1a595b9d60ca1b6064820152608401610565565b600260ff82161115610a405760405162461bcd60e51b8152600401610565906128d2565b335f9081526006602052604090205460ff16610aaa5760405162461bcd60e51b815260206004820152602360248201527f436f6e666964656e7469616c5061796d656e74476174653a206e6f206465706f6044820152621cda5d60ea1b6064820152608401610565565b5f610aea8585858080601f0160208091040260200160405190810160405280939291908181526020018383808284375f920191909152506119a392505050565b335f9081526004602052604081205491925090610b0a9060ff1615611a32565b90505f610b208284610b1b5f611a4d565b611a63565b335f9081526005602052604081205491925090610b3e908390611aac565b90505f610b4f8284610b1b5f611a4d565b335f9081526005602052604081205491925090610b86908490610b729087611ada565b335f90815260056020526040902054611a63565b9050610b9181611a12565b50610b9c8133611b08565b50335f818152600560205260409020829055610bba908c848a611b2b565b5050505050505050505050565b5f546001600160a01b03163314610bf05760405162461bcd60e51b815260040161056590612917565b6001600160a01b038116610c5a5760405162461bcd60e51b815260206004820152602b60248201527f436f6e666964656e7469616c5061796d656e74476174653a207a65726f20616460448201526a6d696e206164647265737360a81b6064820152608401610565565b5f80546040516001600160a01b03808516939216917ff8ccb027dfcd135e000e9d45e6cc2d662578a8825d4c45b5e32e0adf67e79ec691a35f80546001600160a01b0319166001600160a01b0392909216919091179055565b5f818152600a60205260409020600581015460ff1615610ce55760405162461bcd60e51b815260040161056590612ae3565b6005810154610100900460ff1615610d4a5760405162461bcd60e51b815260206004820152602260248201527f436f6e666964656e7469616c5061796d656e74476174653a2063616e63656c6c604482015261195960f21b6064820152608401610565565b8060040154421115610dae5760405162461bcd60e51b815260206004820152602760248201527f436f6e666964656e7469616c5061796d656e74476174653a20696e74656e7420604482015266195e1c1a5c995960ca1b6064820152608401610565565b80546001600160a01b0316331480610dd45750335f9081526007602052604090205460ff165b610e305760405162461bcd60e51b815260206004820152602760248201527f436f6e666964656e7469616c5061796d656e74476174653a206e6f74206175746044820152661a1bdc9a5e995960ca1b6064820152608401610565565b60058101805460ff1916600190811790915581549082015460028301546003840154610e6d936001600160a01b039081169316919060ff16611b2b565b817f3ff0a06e37cd0e1cd42127b2774ab473bc5d7c3712becfcd25d0e05268480d1942604051610e9f91815260200190565b60405180910390a25050565b60095460609081908067ffffffffffffffff811115610ecc57610ecc612963565b604051908082528060200260200182016040528015610ef5578160200160208202803683370190505b5092508067ffffffffffffffff811115610f1157610f11612963565b604051908082528060200260200182016040528015610f4457816020015b6060815260200190600190039081610f2f5790505b5091505f5b818110156110965760098181548110610f6457610f64612b2c565b905f5260205f20015f9054906101000a90046001600160a01b0316848281518110610f9157610f91612b2c565b60200260200101906001600160a01b031690816001600160a01b03168152505060085f60098381548110610fc757610fc7612b2c565b5f9182526020808320909101546001600160a01b0316835282019290925260400190208054610ff590612977565b80601f016020809104026020016040519081016040528092919081815260200182805461102190612977565b801561106c5780601f106110435761010080835404028352916020019161106c565b820191905f5260205f20905b81548152906001019060200180831161104f57829003601f168201915b505050505083828151811061108357611083612b2c565b6020908102919091010152600101610f49565b50509091565b5f6110a5611f91565b905090565b335f9081526007602052604090205460ff1661112e5760405162461bcd60e51b815260206004820152603d60248201527f436f6e666964656e7469616c5061796d656e74476174653a2063616c6c65722060448201527f6973206e6f7420616e20617574686f72697a65642070726f746f636f6c0000006064820152608401610565565b6001600160a01b0384166111975760405162461bcd60e51b815260206004820152602a60248201527f436f6e666964656e7469616c5061796d656e74476174653a207a65726f2066726044820152696f6d206164647265737360b01b6064820152608401610565565b6001600160a01b0383166111bd5760405162461bcd60e51b81526004016105659061288a565b600260ff821611156111e15760405162461bcd60e51b8152600401610565906128d2565b6111ed84848484611b2b565b50505050565b60086020525f90815260409020805461120b90612977565b80601f016020809104026020016040519081016040528092919081815260200182805461123790612977565b80156112825780601f1061125957610100808354040283529160200191611282565b820191905f5260205f20905b81548152906001019060200180831161126557829003601f168201915b505050505081565b5f546001600160a01b031633146112b35760405162461bcd60e51b815260040161056590612917565b6001600160a01b0381165f9081526007602052604090205460ff166113335760405162461bcd60e51b815260206004820152603060248201527f436f6e666964656e7469616c5061796d656e74476174653a2070726f746f636f60448201526f1b081b9bdd081c9959da5cdd195c995960821b6064820152608401610565565b6001600160a01b0381165f908152600760205260408120805460ff19169055600954905b8181101561144657826001600160a01b03166009828154811061137c5761137c612b2c565b5f918252602090912001546001600160a01b03160361143e5760096113a2600184612b54565b815481106113b2576113b2612b2c565b5f91825260209091200154600980546001600160a01b0390921691839081106113dd576113dd612b2c565b905f5260205f20015f6101000a8154816001600160a01b0302191690836001600160a01b03160217905550600980548061141957611419612b67565b5f8281526020902081015f1990810180546001600160a01b0319169055019055611446565b600101611357565b506040516001600160a01b038316907fc404b0a259c38f3ff1997a9e72c3b9092241c72b217003c13229492901e25f2e905f90a25050565b5f818152600a6020526040902080546001600160a01b031633146114f55760405162461bcd60e51b815260206004820152602860248201527f436f6e666964656e7469616c5061796d656e74476174653a206e6f7420796f756044820152671c881a5b9d195b9d60c21b6064820152608401610565565b600581015460ff161561151a5760405162461bcd60e51b815260040161056590612ae3565b6005810154610100900460ff16156115875760405162461bcd60e51b815260206004820152602a60248201527f436f6e666964656e7469616c5061796d656e74476174653a20616c72656164796044820152690818d85b98d95b1b195960b21b6064820152608401610565565b60058101805461ff00191661010017905560405182907f82e22a6589456f23eb04bdb6cf5ada5edf1e1433b15a67d9d8ff682c8f2f1806905f90a25050565b5f546001600160a01b031633146115ef5760405162461bcd60e51b815260040161056590612917565b6001600160a01b0382166116595760405162461bcd60e51b815260206004820152602b60248201527f436f6e666964656e7469616c5061796d656e74476174653a207a65726f20766160448201526a756c74206164647265737360a81b6064820152608401610565565b6001600160a01b0381166116c55760405162461bcd60e51b815260206004820152602d60248201527f436f6e666964656e7469616c5061796d656e74476174653a207a65726f20766560448201526c7374696e67206164647265737360981b6064820152608401610565565b6001546001600160a01b0316156117335760405162461bcd60e51b815260206004820152602c60248201527f436f6e666964656e7469616c5061796d656e74476174653a206d6f64756c657360448201526b08185b1c9958591e481cd95d60a21b6064820152608401610565565b600180546001600160a01b039384166001600160a01b03199182161790915560028054929093169116179055565b5f6117a18484848080601f0160208091040260200160405190810160405280939291908181526020018383808284375f920191909152506119a392505050565b90506117cd817f0000000000000000000000000000000000000000000000000000000000000000611fc5565b5060405163eb3155b560e01b8152336004820152306024820152604481018290527f00000000000000000000000000000000000000000000000000000000000000006001600160a01b03169063eb3155b5906064015f604051808303815f87803b158015611839575f5ffd5b505af115801561184b573d5f5f3e3d5ffd5b5050335f9081526006602052604090205460ff161591506118ac905057335f908152600560205260408120546118819083611fe1565b905061188c81611a12565b506118978133611b08565b50335f908152600560205260409020556118e8565b6118b581611a12565b506118c08133611b08565b50335f90815260056020908152604080832084905560069091529020805460ff191660011790555b60405142815233907f2da466a7b24304f47e87fa2e1e5a81b9831ce54fec19055ce277ca2f39ba42c49060200160405180910390a250505050565b5f546001600160a01b0316331461194c5760405162461bcd60e51b815260040161056590612917565b6001600160a01b0382165f81815260046020908152604091829020805460ff191685151590811790915591519182527f087c51f3303033f9686297ea31584d2ad5219efa00dc6204ec99425baf995a989101610e9f565b5f81515f146119bf576119b88383600561200f565b9050611a0c565b825f8190036119d9576119d15f611a4d565b915050611a0c565b6119e38133612109565b611a0957604051630276b5d960e01b815260048101829052336024820152604401610565565b90505b92915050565b5f81611a2457611a215f611a4d565b91505b611a2e8230612195565b5090565b5f611a0c82611a41575f611a44565b60015b60ff165f612209565b5f611a0c8267ffffffffffffffff166005612209565b5f83611a7557611a725f611a32565b93505b82611a8657611a835f611a4d565b92505b81611a9757611a945f611a4d565b91505b611aa2848484612298565b90505b9392505050565b5f82611abe57611abb5f611a4d565b92505b81611acf57611acc5f611a4d565b91505b611a0983835f61232e565b5f82611aec57611ae95f611a4d565b92505b81611afd57611afa5f611a4d565b91505b611a0983835f6123db565b5f82611b1a57611b175f611a4d565b92505b611b248383612195565b5090919050565b5f1960ff821601611cc8576001546001600160a01b0316611b9d5760405162461bcd60e51b815260206004820152602660248201527f436f6e666964656e7469616c5061796d656e74476174653a207661756c74206e6044820152651bdd081cd95d60d21b6064820152608401610565565b611bc7827f0000000000000000000000000000000000000000000000000000000000000000611fc5565b50600154604051632df5f6bf60e11b81526001600160a01b039182166004820152602481018490527f000000000000000000000000000000000000000000000000000000000000000090911690635bebed7e906044015f604051808303815f87803b158015611c34575f5ffd5b505af1158015611c46573d5f5f3e3d5ffd5b5050600154611c6192508491506001600160a01b0316611fc5565b5060015460405163b9e1aa0360e01b81526001600160a01b038581166004830152602482018590529091169063b9e1aa03906044015f604051808303815f87803b158015611cad575f5ffd5b505af1158015611cbf573d5f5f3e3d5ffd5b50505050611f35565b60011960ff821601611e8c576002546001600160a01b0316611d3d5760405162461bcd60e51b815260206004820152602860248201527f436f6e666964656e7469616c5061796d656e74476174653a2076657374696e67604482015267081b9bdd081cd95d60c21b6064820152608401610565565b5f611d4b62278d0042612b7b565b905062ed4e00611d7b847f0000000000000000000000000000000000000000000000000000000000000000611fc5565b50600254604051632df5f6bf60e11b81526001600160a01b039182166004820152602481018690527f000000000000000000000000000000000000000000000000000000000000000090911690635bebed7e906044015f604051808303815f87803b158015611de8575f5ffd5b505af1158015611dfa573d5f5f3e3d5ffd5b5050600254611e1592508691506001600160a01b0316611fc5565b5060025460405163270b938360e21b81526001600160a01b03878116600483015260248201879052604482018590526064820184905290911690639c2e4e0c906084015f604051808303815f87803b158015611e6f575f5ffd5b505af1158015611e81573d5f5f3e3d5ffd5b505050505050611f35565b611eb6827f0000000000000000000000000000000000000000000000000000000000000000611fc5565b50604051632df5f6bf60e11b81526001600160a01b038481166004830152602482018490527f00000000000000000000000000000000000000000000000000000000000000001690635bebed7e906044015f604051808303815f87803b158015611f1e575f5ffd5b505af1158015611f30573d5f5f3e3d5ffd5b505050505b611f3f8284611b08565b506040805160ff831681524260208201526001600160a01b0380861692908716917fd01aba031a4bb23d318c9b7825aaf325b39be39953421d3eabc1864e681060bf910160405180910390a350505050565b5f46600103611fa05750600190565b4662aa36a703611fb1575061271190565b46617a6903611fc057505f1990565b505f90565b5f82611fd757611fd45f611a4d565b92505b611b24838361243e565b5f82611ff357611ff05f611a4d565b92505b81612004576120015f611a4d565b91505b611a0983835f612484565b5f516020612c4d5f395f51905f525460405163045fc19560e11b81525f915f516020612c6d5f395f51905f52916001600160a01b03909116906308bf832a90612062908890339089908990600401612bae565b6020604051808303815f875af115801561207e573d5f5f3e3d5ffd5b505050506040513d601f19601f820116820180604052508101906120a29190612be6565b8154604051630f8e573b60e21b8152600481018390523360248201529193506001600160a01b031690633e395cec906044015f604051808303815f87803b1580156120eb575f5ffd5b505af11580156120fd573d5f5f3e3d5ffd5b50505050509392505050565b5f805f516020612c6d5f395f51905f5280546040516382027b6d60e01b8152600481018790526001600160a01b0386811660248301529293509116906382027b6d90604401602060405180830381865afa158015612169573d5f5f3e3d5ffd5b505050506040513d601f19601f8201168201806040525081019061218d9190612bfd565b949350505050565b5f516020612c6d5f395f51905f528054604051635ca4b5b160e11b8152600481018590526001600160a01b0384811660248301529091169063b9496b62906044015b5f604051808303815f87803b1580156121ee575f5ffd5b505af1158015612200573d5f5f3e3d5ffd5b50505050505050565b5f516020612c4d5f395f51905f5254604051639cd07acb60e01b81525f915f516020612c6d5f395f51905f52916001600160a01b0390911690639cd07acb906122589087908790600401612c18565b6020604051808303815f875af1158015612274573d5f5f3e3d5ffd5b505050506040513d601f19601f8201168201806040525081019061218d9190612be6565b5f805f516020612c6d5f395f51905f526001810154604051637702dcff60e01b81526004810188905260248101879052604481018690529192506001600160a01b031690637702dcff906064016020604051808303815f875af1158015612301573d5f5f3e3d5ffd5b505050506040513d601f19601f820116820180604052508101906123259190612be6565b95945050505050565b5f5f82156123415750600160f81b612344565b505f5b5f516020612c4d5f395f51905f5254604051631d44e90160e21b81525f516020612c6d5f395f51905f52916001600160a01b031690637513a4049061239190899089908790600401612c2c565b6020604051808303815f875af11580156123ad573d5f5f3e3d5ffd5b505050506040513d601f19601f820116820180604052508101906123d19190612be6565b9695505050505050565b5f5f82156123ee5750600160f81b6123f1565b505f5b5f516020612c4d5f395f51905f52546040516303056db360e31b81525f516020612c6d5f395f51905f52916001600160a01b03169063182b6d989061239190899089908790600401612c2c565b5f516020612c6d5f395f51905f528054604051630f8e573b60e21b8152600481018590526001600160a01b03848116602483015290911690633e395cec906044016121d7565b5f5f82156124975750600160f81b61249a565b505f5b5f516020612c4d5f395f51905f525460405163022f65e760e31b81525f516020612c6d5f395f51905f52916001600160a01b03169063117b2f389061239190899089908790600401612c2c565b80356001600160a01b03811681146124fd575f5ffd5b919050565b5f60208284031215612512575f5ffd5b611a09826124e7565b5f5f83601f84011261252b575f5ffd5b50813567ffffffffffffffff811115612542575f5ffd5b602083019150836020828501011115612559575f5ffd5b9250929050565b803560ff811681146124fd575f5ffd5b5f5f5f5f5f5f60a08789031215612585575f5ffd5b61258e876124e7565b955060208701359450604087013567ffffffffffffffff8111156125b0575f5ffd5b6125bc89828a0161251b565b90955093506125cf905060608801612560565b9150608087013590509295509295509295565b5f5f5f604084860312156125f4575f5ffd5b6125fd846124e7565b9250602084013567ffffffffffffffff811115612618575f5ffd5b6126248682870161251b565b9497909650939450505050565b5f5f5f5f5f60808688031215612645575f5ffd5b61264e866124e7565b945060208601359350604086013567ffffffffffffffff811115612670575f5ffd5b61267c8882890161251b565b909450925061268f905060608701612560565b90509295509295909350565b5f602082840312156126ab575f5ffd5b5035919050565b5f81518084528060208401602086015e5f602082860101526020601f19601f83011685010191505092915050565b604080825283519082018190525f9060208501906060840190835b818110156127225783516001600160a01b03168352602093840193909201916001016126fb565b50508381036020850152809150845180825260208201925060208160051b830101602087015f5b8381101561277b57601f198584030186526127658383516126b2565b6020968701969093509190910190600101612749565b509098975050505050505050565b5f5f5f5f6080858703121561279c575f5ffd5b6127a5856124e7565b93506127b3602086016124e7565b9250604085013591506127c860608601612560565b905092959194509250565b602081525f611a0960208301846126b2565b5f5f604083850312156127f6575f5ffd5b6127ff836124e7565b915061280d602084016124e7565b90509250929050565b5f5f5f60408486031215612828575f5ffd5b83359250602084013567ffffffffffffffff811115612618575f5ffd5b8015158114612852575f5ffd5b50565b5f5f60408385031215612866575f5ffd5b61286f836124e7565b9150602083013561287f81612845565b809150509250929050565b60208082526028908201527f436f6e666964656e7469616c5061796d656e74476174653a207a65726f20746f604082015267206164647265737360c01b606082015260800190565b60208082526025908201527f436f6e666964656e7469616c5061796d656e74476174653a20696e76616c6964604082015264206d6f646560d81b606082015260800190565b6020808252602c908201527f436f6e666964656e7469616c5061796d656e74476174653a2063616c6c65722060408201526b34b9903737ba1030b236b4b760a11b606082015260800190565b634e487b7160e01b5f52604160045260245ffd5b600181811c9082168061298b57607f821691505b6020821081036129a957634e487b7160e01b5f52602260045260245ffd5b50919050565b601f8211156129f657805f5260205f20601f840160051c810160208510156129d45750805b601f840160051c820191505b818110156129f3575f81556001016129e0565b50505b505050565b67ffffffffffffffff831115612a1357612a13612963565b612a2783612a218354612977565b836129af565b5f601f841160018114612a58575f8515612a415750838201355b5f19600387901b1c1916600186901b1783556129f3565b5f83815260208120601f198716915b82811015612a875786850135825560209485019460019092019101612a67565b5086821015612aa3575f1960f88860031b161c19848701351681555b505060018560011b0183555050505050565b60208152816020820152818360408301375f818301604090810191909152601f909201601f19160101919050565b60208082526029908201527f436f6e666964656e7469616c5061796d656e74476174653a20616c726561647960408201526808195e1958dd5d195960ba1b606082015260800190565b634e487b7160e01b5f52603260045260245ffd5b634e487b7160e01b5f52601160045260245ffd5b81810381811115611a0c57611a0c612b40565b634e487b7160e01b5f52603160045260245ffd5b80820180821115611a0c57611a0c612b40565b60548110612baa57634e487b7160e01b5f52602160045260245ffd5b9052565b8481526001600160a01b03841660208201526080604082018190525f90612bd7908301856126b2565b90506123256060830184612b8e565b5f60208284031215612bf6575f5ffd5b5051919050565b5f60208284031215612c0d575f5ffd5b8151611aa581612845565b82815260408101611aa56020830184612b8e565b92835260208301919091526001600160f81b03191660408201526060019056fe9e7b61f58c47dc699ac88507c4f5bb9f121c03808c5676a8078fe583e46497019e7b61f58c47dc699ac88507c4f5bb9f121c03808c5676a8078fe583e4649700a26469706673582212200739781451da1b5fd4dcc8fa9a2f87bf7e763a493fd23e6ba568631590f0c04e64736f6c634300081c0033",
  "linkReferences": {},
  "deployedLinkReferences": {}
}